:020000040800F2
:1000000098060020650500089D0100089F01000872
:1000100000000000000000000000000000000000E0
:10002000000000000000000000000000A301000824
:100030000000000000000000A5010008A701000862
:1000400077050008770500087705000877050008A0
:100050007705000877050008770500087705000890
:100060007705000877050008770500087705000880
:100070007705000877050008770500087705000870
:1000800077050008770500080000000077050008E4
:100090007705000877050008770500087705000850
:1000A0007705000877050008770500087306000843
:1000B0007705000800000000770500080000000038
:1000C00000F002F800F03EF80CA030C80838241800
:1000D0002D18A246671EAB4654465D46AC4201D180
:1000E00000F030F87E460F3E0FCCB6460126334274
:1000F00000D0FB1AA246AB4633431847141D00003C
:10010000341D0000103A02D378C878C1FAD85207DB
:1001100001D330C830C101D504680C6070470000BD
:100120000023002400250026103A01D378C1FBD813
:10013000520700D330C100D50B6070471FB51FBDFB
:1001400010B510BD01F026FE1146FFF7F7FF00F0D5
:1001500009F801F050FE03B4FFF7F2FF03BC00F012
:1001600033FA000000F0A0FA00F018FA00F018F9D5
:1001700004A001F0FFF903E000F0A7F906490860C8
:10018000FAE70000506C656173652073656E64204A
:10019000446174613A31000000000020704700BFE4
:1001A000FEE77047704770470CB500200190009043
:1001B000734800680121090408437149086000BFC1
:1001C0006F48006801214904084000900198401CD4
:1001D00001900098002804D1052109020198884265
:1001E000EED167480068012149040840002802D088
:1001F0000120009001E0002000900098012839D1F2
:100200001120604908605E4840685D4948600846C2
:1002100040684860084640683F21090488435849BF
:100220004860084640681121090408435449486061
:10023000084600680121090608435149086000BFCB
:100240004F4800680121490608400028F8D04C4872
:100250004068800880004A4948600846406802219A
:1002600008434749486000BF454840680C210840A2
:100270000828F9D10CBD10B5414800680121084398
:100280003F490860084640683F4908403C4948608B
:10029000084600683D49084039490860084600683A
:1002A00001218904884336490860084640683F2197
:1002B00009048843324948600846C06A00090001C1
:1002C000C8620846006BFF21543188432C490863FB
:1002D0000846406B40084000486300208860FFF7F4
:1002E00063FF10BDF8B50025002400260027244830
:1002F00040680C2108400546002D04D0042D06D08E
:10030000082D2AD107E022482249086029E0204828
:100310002049086025E01A4840680F2189040840F8
:100320000446174840680121090408400646A00C0D
:10033000841C002E04D118486043164908600BE065
:100340000F48C06A0007000F471C3946104801F0EB
:100350001FF960430F49086003E00D480D4908602C
:1003600000BF00BF06484068F021084000090B4963
:100370000D5C08480068E84006490860F8BD0000C8
:1003800000100240002002400CB8FFF8FFFFF6FE0C
:1003900000127A000400002000093D00080000203F
:1003A0001CB50121480400F050FD042000900121FB
:1003B0006846017100218171C17103214171694653
:1003C0000920C00600F00EFA1CBD10B5042009215A
:1003D000C9068861012000F073F904205C49088196
:1003E000FF20F53000F06CF904200921C90688616E
:1003F0002D2000F065F904210920C00600F055FA0F
:100400000446462000F05CF904200921C9068861F1
:10041000462000F055F9204610BD70B50446002571
:1004200022E004204A490881022000F049F9042012
:100430000921C9068861022000F042F9E607F60F9B
:10044000002E04D004200921C906886102E004209E
:100450003F490881142000F033F904200921C9061E
:1004600088616408681C85B2082DDADB70BD70B540
:100470000025002400BF21E004203549088100F058
:100480001FF904200921C9068861052000F018F928
:10049000641004210920C00600F007FA002801D0EA
:1004A000802004431E2000F00BF904200921C90616
:1004B0008861012000F004F9681CC5B2082DDBDB5F
:1004C000142000F0FDF8204670BDF0B587B0FFF7AE
:1004D0007CFF7D20C00000F0F3F8CC20FFF79DFFEB
:1004E0004420FFF79AFF552000F0EAF8FFF76DFF70
:1004F000CC20FFF792FFBE20FFF78FFF552000F0C2
:10050000DFF8FFF7B4FF0490FFF7B1FF05900599FE
:100510000902049A1143084601F0DBFA044600225E
:100520000C4B01F0E1FA00220B4B0191009001F01D
:10053000DBFA06460022094B01F056FA03910290BD
:1005400001F082FA064908600846006807B0F0BD6D
:10055000200000480000B03F000024400000E03FC1
:10056000180000200748804707480047FEE7FEE7DD
:10057000FEE7FEE7FEE7FEE704480549054A064BAD
:100580007047000077020008C100000898000020B2
:100590009806002098020020980200201CB5012136
:1005A000480400F052FC02200090012168460171CD
:1005B00000218171C1710321417169460920C00682
:1005C00000F010F91CBD000000BF704700BF344AA6
:1005D000D26980231A40002AF9D0314B2033188188
:1005E000704710B58AB004460121480400F02DFC84
:1005F0000121880300F037FC01220921C80600F020
:100600007AF901220A210920C00600F074F90320BA
:1006100040020890022108A80171032141710021C4
:1006200081710121C17108A90920C00600F0DAF822
:100630000294002003900490059007900C200690EF
:1006400002A9174800F0F6FC01221649144800F0F0
:100650001FFF0121124800F086FD1B216846017131
:10066000022141710121817101A800F06DFC0AB0E5
:1006700010BD10B50B490A4800F04AFF00280ED003
:10068000074800F02BFE04462146054800F022FEF4
:1006900000BF8021024800F02FFF0028F9D010BDD4
:1006A000003801400501050001202A49087000209A
:1006B00008567D21C900484300B227490880704789
:1006C0000146244A0023D3560A465A43234B5A6113
:1006D00000229A611A46126901231A431F4B1A61BC
:1006E00000BF1E4A1069C207D20F002A04D001229F
:1006F00012040240002AF4D0184A1269520852002B
:10070000164B1A6100229A6170470146124A002373
:10071000D35E0A465A43114B5A6100229A611A4627
:10072000126901231A430D4B1A6100BF0B4A10696D
:10073000C207D20F002A04D0012212040240002A6C
:10074000F4D0064A126952085200044B1A61002282
:100750009A617047200000202200002000E000E0A5
:1007600010B504460920C006844209D1012148047D
:1007700000F095FB00210120400400F090FB30E0E8
:100780006E48844208D10121000200F088FB00215C
:10079000200200F084FB24E06948844208D1012152
:1007A000000200F07CFB0021200200F078FB18E042
:1007B0006448844209D10121080500F070FB002142
:1007C0000120000500F06BFB0BE05F48844208D17C
:1007D0000121880500F063FB00210120800500F065
:1007E0005EFB10BDF0B50A4600210023002400BFC7
:1007F0003DE001258D402B4615681D402C469C424E
:1008000034D11579012D02D01579022D16D18568C4
:100810004F000326BE40B543856055794E00B54074
:10082000866835438560858801268E40B54385807E
:10083000858896798E40B6B23543858005684F002D
:100840000326BE40B543056015794E00B5400668E5
:1008500035430560C5684F000326BE40B543C560FB
:10086000D5794E00B540C6683543C560491C10298E
:10087000BFD3F0BD354901600021017102214171F2
:1008800000218171C171704708B5012212040092E4
:10089000009A0A430092009AC261C161009AC26143
:1008A000C2690092C269009208BD02460020138A04
:1008B0000B40002B01D0012000E0002070470146D2
:1008C000088A704702460020938A0B40002B01D013
:1008D000012000E0002070470146888A704781614E
:1008E000704701857047002A01D0816100E00185D1
:1008F000704781827047F0B5002300244D07EE0E4B
:100900001546B5402B46CD10AE0005462035AD59F5
:100910004E07F70E0F26BE40B543CE10B600074671
:100920002037BD51CD10AE003D46AD591D432C467C
:10093000CD10AD003E467451F0BD000000040048EB
:1009400000080048000C004800140048FFFF0000A9
:10095000FD48006801210843FB49086008464068DB
:10096000FA490840F849486008460068F8490840D4
:10097000F549086008460068012189048843F24966
:100980000860084640683F2109048843EE494860F2
:100990000846C06A00090001C8620846006BFF21D2
:1009A00054318843E84908630846406B40084000DA
:1009B00048630020886070470021E34A9170114627
:1009C0008870704710B502460021002300205111A5
:1009D000002902D1DC4C23680BE0012902D1DA4C5A
:1009E000236A06E0022902D1D74C636A01E0D64CA3
:1009F000636BD106C90E01248C401C40002C01D031
:100A0000012000E0002010BD38B500200090002437
:100A1000002500BF1120FFF7D5FF05460098401CB8
:100A20000090052109020098884201D0002DF1D0E4
:100A30001120FFF7C7FF002801D0012400E00024A7
:100A4000204638BD01460020BF4A1068F823024600
:100A50009A431046CA001043BB4A106070470028F2
:100A600006D0B949096801221143B74A116005E06F
:100A7000B549096849084900B34A11607047014601
:100A80000020B14A506BF82302469A431046CA0030
:100A90001043AD4A50637047002806D0AA49496BFD
:100AA00001221143A84A516305E0A749496B49084F
:100AB0004900A54A51637047002806D0A249496BF6
:100AC00004229143A04A516305E09F49496B0422E7
:100AD00011439D4A516370479B49096A490849007F
:100AE000994A11621146096A04229143964A116299
:100AF0001146096A0143116270479349096A182235
:100B00009143914A11621146096A0143116270478B
:100B1000002806D08C49496A012211438A4A516251
:100B200005E08949496A49084900874A5162704786
:100B3000854A52683D231B049A43834B5A601A46E8
:100B4000526803460B431A437F4B5A607047002894
:100B500007D07D4909680122120611437A4A1160C3
:100B600006E079490968012212069143764A11602C
:100B7000704701460020744AD06A0009000102460D
:100B80000A431046704AD0627047002807D06E4969
:100B900009680122D20411436B4A116006E06A49D8
:100BA00009680122D2049143674A1160704766497F
:100BB000C871704701460020634A50688008800071
:100BC00002460A431046604A506070475E484068DB
:100BD0000C2108407047014600205B4A5068F02312
:100BE00002469A43104602460A431046564A50604F
:100BF000704701460020544A506807231B020246F2
:100C00009A43104602460A4310464F4A50607047C6
:100C10004D4949680122920391434B4A5160114664
:100C2000496882B21143484A51601146096B9215D6
:100C30009143454A11631146096B020C1143424A24
:100C4000116370474049096B402291433E4A11634A
:100C50001146096B0143116370473B49096B102230
:100C60009143394A11631146096B0143116370477F
:100C70003549096B89088900334A11631146096BAC
:100C8000014311637047FEB504460025002600208D
:100C90000190009000272C4840680C210840054630
:100CA000002D04D0042D05D0082D28D105E02948B9
:100CB000206027E02748206024E0234840680F2177
:100CC000890408400646204840680121090408407C
:100CD0000190B00C861C0198002803D11E48704377
:100CE00020600BE01848C06A0007000F401C00900D
:100CF0001848009900F04CFC7043206002E0154851
:100D0000206000BF00BF10484068F0210840054641
:100D10002D091248475D2068F84060600A48406825
:100D200007210902084005462D0A0C48475D606806
:100D3000F840A0600448006BFF2101310840884260
:100D400010D00748E0601BE0001002400CB8FFF82C
:100D5000FFFFF6FE00127A0000093D00240000208B
:100D6000809FD5007548406801218903084088426A
:100D700003D0A0684008E06002E0A0688008E0605E
:100D80006E48006B40210840402802D06C4820612A
:100D900002E00120C00320616848006B1021084078
:100DA000102802D06748606101E0206860616348F4
:100DB000006B8007800F002802D1A068A06119E0B5
:100DC0005E48006B8007800F012802D12068A06177
:100DD00010E05A48006B8007800F022802D1800380
:100DE000A06107E05548006B8007800F032801D100
:100DF0005448A061FEBD5149096A01434F4A11623E
:100E00007047002807D04D49096A0122D2031143D7
:100E10004A4A116206E04949096A0122D203914314
:100E2000464A11627047002807D04449096A0122E6
:100E300012041143414A116206E04049096A012245
:100E4000120491433D4A11627047002905D03B4A84
:100E500052690243394B5A6104E0384A526982436D
:100E6000364B5A617047002905D0344A92690243D3
:100E7000324B9A6104E0314A926982432F4B9A6166
:100E80007047002905D02D4AD26902432B4BDA6105
:100E900004E02A4AD2698243284BDA61704700296C
:100EA00005D0264A926A0243244B9A6204E0234A00
:100EB000926A8243214B9A627047002905D01F4AEB
:100EC000D26802431D4BDA6004E01C4AD2688243B8
:100ED0001A4BDA607047002905D0184A126902439C
:100EE000164B1A6104E0154A12698243134B1A61CA
:100EF0007047002905D0114A527A02430F4B5A72AB
:100F000004E00E4A527A82430C4B5A7270470B48E7
:100F1000406A0121090608430849486270470146B2
:100F20000020064A92680A40002A01D0012000E011
:100F3000002070470149887270470000001002408D
:100F40001280000000127A0000218278002A27D047
:100F5000274A03231B02D21803789B109B00D15809
:100F600002789207D30EFF229A400B46934319460C
:100F700042789207120E03789B07DB0E9A401143CA
:100F80001B4A03231B02D21803789B109B00D150ED
:100F90000278D306DB0E01229A40154B1A6007E057
:100FA0000278D306DB0E01229A40114B80331A607F
:100FB0007047002905D00F4A126902430D4B1A6190
:100FC00004E00C4A126982430A4B1A6170470428F4
:100FD00006D10949096904221143074A116105E054
:100FE0000549096904229143034A116170470000D1
:100FF00000E100E000ED00E000E000E010B5044694
:10100000F748844209D101218803FFF756FF0021E8
:1010100001208003FFF751FF0BE0F248844208D122
:1010200001214804FFF757FF002101204004FFF78A
:1010300052FF10BDF0B589B005460E4600240020D1
:10104000089000BF00BF28684008400028606C6816
:1010500003210903204688430446B06804436C60BA
:101060002C68E1480440F16870680843316908431E
:1010700004432C60AC6803210902204688430446DF
:1010800070690443AC606846FFF7FDFDD4488542B3
:1010900002D10698089001E0029808902868012182
:1010A000C9030840002809D0326851001923089A62
:1010B0005A43104600F06CFA074608E03268910087
:1010C0001923089A5A43104600F062FA0746642131
:1010D000384600F05DFA0401200964214843381ABB
:1010E000079028680121C903084000280AD0079901
:1010F000C90008463230642100F04AFA4007400F28
:10110000044309E00799090108463230642100F0E0
:101110003FFA0007000F0443AC8109B0F0BD4B213A
:10112000C9010160002141608160C1600C21016141
:1011300000214161704710B5002242680F2424024B
:101140001346A3431A464C680B6823438C68234319
:10115000CC6823431A43426010BD00210160416006
:101160008160C1607047002904D0026801231A43DE
:10117000026003E002685208520002607047002AD1
:1011800003D003680B43036002E003688B430360F2
:101190007047002905D002680123DB031A4302606F
:1011A00004E002680123DB039A43026070470029D0
:1011B00005D082680123DB021A43826004E0826862
:1011C0000123DB029A4382607047002905D0426800
:1011D0000123DB041A43426004E042680123DB047C
:1011E0009A4342607047002905D0426801239B045E
:1011F0001A43426004E0426801239B049A43426020
:101200007047002A03D043680B43436002E0436801
:101210008B4343607047002905D042680123DB03FC
:101220001A43426004E042680123DB039A434260B0
:101230007047002905D042680123DB051A4342604C
:1012400004E042680123DB059A434260704742692B
:10125000120E1206426142690A4342617047028AD5
:10126000FF231B021A400282028A0A43028270474D
:10127000002904D0026802231A43026003E00268D6
:1012800002239A4302607047826803231B059A4336
:10129000826082680A4382607047002905D04268F4
:1012A00001231B051A43426004E0426801231B0529
:1012B0009A4342607047426803235B059A43426049
:1012C00042680A4342607047C1690122D2039143D8
:1012D000C1617047CA05D20D028570470146888CEE
:1012E000C005C00D704742681202120A426042688F
:1012F0000B061A4342607047002905D0026801239B
:101300005B031A43026004E0026801235B039A4313
:101310000260704702680123DB029A4302600268A0
:101320000A4302607047426810239A434260426851
:101330000A4342607047426820239A4342604268F1
:101340000A4342607047002905D0426801239B038D
:101350001A43426004E0426801239B039A434260BF
:101360007047002904D0826808231A43826003E092
:10137000826808239A4382607047028AD2B202824E
:10138000028A0B021A4302827047002904D0826845
:1013900020231A43826003E0826820239A438260FC
:1013A0007047002904D0826810231A43826003E04A
:1013B000826810239A4382607047826807235B0427
:1013C0009A43826082684B041A4382607047426984
:1013D0001202120A426142690B061A4342617047C7
:1013E0000038014000440040F3E9FFFF8268042315
:1013F0009A43826082680A4382607047002904D061
:10140000826802231A43826003E0826802239A43BF
:1014100082607047002905D0826801239B031A432C
:10142000826004E0826801239B039A4382607047D4
:1014300082680123DB039A43826082680A438260E8
:10144000704702681F235B059A43026002684B05E0
:101450001A430260704702681F231B049A4302600C
:1014600002680B041A4302607047002A03D08368A5
:101470000B43836002E083688B438360704782681C
:1014800001235B039A43826082680A43826070474B
:10149000F8B50346002400260096002500201846D3
:1014A0000E04340ECEB200960127009EB7403D4692
:1014B000022C01D1001D02E0032C00D10830002ACB
:1014C00003D006682E43066002E00668AE4306605D
:1014D000F8BD002A03D0038B0B43038302E0038B88
:1014E0008B4303837047826801231B039A43826006
:1014F00082680A438260704702460020D3690B402D
:10150000002B01D0012000E00020704701627047ED
:1015100070B502460B4600240021002500201E0461
:10152000350ED9B201268E403146012D02D1166802
:10153000314006E0022D02D15668314001E0966844
:1015400031401C0C0126A6403446D669344000299F
:1015500003D0002C01D0012000E0002070BD10B5A8
:10156000002300220B0C01249C402246026210BD85
:10157000704700000FB4054910B503AA029800F0A7
:10158000D9FB10BC08BC04B0184700001C000020A8
:10159000002203098B422CD3030A8B4211D3002370
:1015A0009C464EE003460B433CD4002243088B424A
:1015B00031D303098B421CD3030A8B4201D39446D7
:1015C0003FE0C3098B4201D3CB01C01A52418309CA
:1015D0008B4201D38B01C01A524143098B4201D384
:1015E0004B01C01A524103098B4201D30B01C01AAF
:1015F0005241C3088B4201D3CB00C01A5241830829
:101600008B4201D38B00C01A524143088B4201D355
:101610004B00C01A5241411A00D2014652411046B5
:1016200070475DE0CA0F00D04942031000D340422A
:10163000534000229C4603098B422DD3030A8B4260
:1016400012D3FC22890112BA030A8B420CD38901FE
:1016500092118B4208D3890192118B4204D38901E4
:101660003AD0921100E08909C3098B4201D3CB0122
:10167000C01A524183098B4201D38B01C01A5241D7
:1016800043098B4201D34B01C01A524103098B42DB
:1016900001D30B01C01A5241C3088B4201D3CB00C6
:1016A000C01A524183088B4201D38B00C01A5241A9
:1016B000D9D243088B4201D34B00C01A5241411A80
:1016C00000D20146634652415B10104601D34042AE
:1016D000002B00D54942704763465B1000D340425F
:1016E00001B50020C046C04602BD70477047704734
:1016F000F0B50C46871A9C410D46861A9D4103D2CF
:10170000C01BA141D21963410D0D1F0DC94EEC1B29
:10171000AE435CD07F057F0D0026002F51D02D05F4
:10172000AC46A943DD020123ED0A1B051D4320231E
:101730001B1B24D41746E740381871412F46E74059
:10174000CC199D402818314661410C0D27D16144C8
:101750009A4013D50023401C594152000ED1400835
:10176000400001224B005205D34207D30520400719
:10177000C14201D5B04900E0B0493046F0BD6B0030
:10178000002A00D001229A181F23203C1B1B01D5E0
:10179000002302E0E540281871410C0DD7D0012448
:1017A00024050919C407CD0740084908E40F284358
:1017B0006144002CD5D00024401C61419A40D0D116
:1017C000CDE76A05520DD9D1C90FC907D5E79C4DA0
:1017D0004E00002801D0012400E0002434195F00ED
:1017E000002A01D0012600E00026BE19954FAC4228
:1017F0000CD8AE420AD8B44206D001256D05EC42A1
:10180000BCD010461946F0BD9942FCD000203946A4
:10181000F0BDF0B51FB40C460F46811A9F41254616
:10182000861A9D4106D20125ED076F40401ABC4142
:1018300052187B41210D1E0D8D1BAC467D4D8D43F5
:101840007ED075056D0D7CD00D05AE46AC431B03F7
:101850001B0B794D52429D41202366469B1B14D39E
:101860001746F740381800260090744160462F460E
:101870000741E41900989D402818664116D4714626
:1018800071189A4025D5012320E093182A466A4111
:101890005200002B00D0521C1E23203E9B1B002B0D
:1018A00061DD3541EE1728186641E8D5001876410C
:1018B0005B1C9A4000D3401C4B05F3181524E340F1
:1018C00010D3002B52D071467118D30FC01802D319
:1018D000491C05B0F0BD0123DB079A42F9D140084D
:1018E0004000F6E701225205B21801D1002853D07A
:1018F0000123CC0ADB029943891E002A08D1020C7D
:1019000003D0020C0004103902E002460020203906
:101910000023550B05D112020823550B01D15201AA
:101920000D23550C01D112011B1DD50C01D19200C4
:101930009B1C150D01D152005B1C2025EE1A01E005
:101940002CE022E00546F54015439840CA1AE1070D
:1019500069181305C918002ABBDA032040070818C4
:10196000C10FC9070FE071466118B2E7F1074008DF
:101970000843711071444A000CD001235B059A4260
:10198000A7D2C90FC9070020A3E74905490D26D1F1
:10199000002001E00028F4D100219AE7284D6600DC
:1019A000002801D0012100E0002171185F00002A09
:1019B00001D0012600E00026BE19224FA94210D80E
:1019C000AE420ED8B14208D001256D05E94206D0DD
:1019D0001946A802414010467BE79C4201D02146AF
:1019E00077E70020394674E710B50C465C4005D512
:1019F0000124E4076340FFF70CFF10BDFFF778FEFA
:101A000010BD30B40C465C4004D50124E4076340AB
:101A100030BC6DE630BCFCE670B50124E4076140E3
:101A20000D465D4002D4FFF763FE70BD6340FFF7D3
:101A3000F0FE70BDFF0700000000F0FF0000F07F27
:101A40000000E0FF0000F87F0346CA02400D10B519
:101A500010430A1504D00124E4072043002A05DBC3
:101A60000A4CA21A04D4D040FF2A00DD002010BD89
:101A70004A00002B01D0012000E0002010180122B4
:101A80005205D042F2D8C817C04310BD1E04000052
:101A90001F22030C02D10F22000402D0030E03D038
:101AA00004E00020014670470002083A030F01D10C
:101AB0000001121F830F01D18000921E002801DB5C
:101AC0004000521E120551184205C012411810461E
:101AD0007047C10FC90700D040420122920711434D
:101AE000D6E701218907D3E7F0B58B4C0F092546CE
:101AF00089B0BD437BD01D092646AE43FAD00E46C1
:101B00005E402740F60F3E43254071D0240121421C
:101B1000FBD0FF24AD19A4042D1B039501252D0531
:101B2000DB02DB0AC9022B43C90A29431E01090152
:101B3000040F130F050121431701880B8203914302
:101B40002D098C46A90B1E438A039543B30B9A03B8
:101B500096433F09BA0B9403A74302962E467E4351
:101B60000497B6464E19D7190C460196544305976B
:101B70007E43371B7646BF1B3601B646BE0B361971
:101B800000967646BC043719009C01D3641C00946F
:101B90006400002F01D001263443029E049F754348
:101BA00066467E430496760034196E00341900941C
:101BB000029C019E1C196643751BAE460694654641
:101BC0004519059C05956C43594375460891691A5A
:101BD0000191049E01465143A41B0491611A009C8B
:101BE0000791E10605D061090122114302E072E08C
:101BF0006EE06109089D00272C0A2D066918049DD6
:101C00007C412A0A2D066918019D6241AC0DAD0286
:101C10006D185441079A910D920255196141029A2B
:101C2000644658435443069B059A5A43121A131BA1
:101C30009A0E9B015B187A41010B0005C3185141B4
:101C4000220A200644195A419A4200D2491C012016
:101C50004002814203D315230226F64302E01423F7
:101C60000326F6432020C51AA9401746AF40DA40A4
:101C70000A4320460399D8400914731819055118CE
:101C8000039A3843D2075140AC4009D00122944016
:101C900006D30022401C5141002C01D140084000D5
:101CA0001E4A934212D3012203989206904207DB08
:101CB0000520400709181A480143C012414004E0BA
:101CC000032040070818C10FC907002009B0F0BD64
:101CD0000020F107FAE705180C464C4111486D4207
:101CE000A04115D394181A465A410E4864429041B7
:101CF0000ED301204A004005824209D35A00824295
:101D000006D35940C90F084AC90700201143DDE72F
:101D100000200649DAE700000000FF07FE07000088
:101D2000FFFFFF7F0000E0FF0000F07F0000F87F72
:101D300070470000084B70B50D467B4400F013F867
:101D40000446284600F022F8002802D00020C043B4
:101D500070BD204670BD00008FE8FFFF01694A1C7E
:101D600002610878704700B58FB00291002105919B
:101D7000054901937944039111460490684600F0A7
:101D800028F80FB000BD0000E5FFFFFFC06880210C
:101D900008407047754600F037F8AE4605006946C2
:101DA0005346C008C000854618B020B5FEF7E4FBD6
:101DB00060BC00274908B6460026C0C5C0C5C0C5DE
:101DC000C0C5C0C5C0C5C0C5C0C5403D49008D46E1
:101DD0007047F8B506460024476880680090304692
:101DE000F56803E00099B847641C3046A84700280E
:101DF000F8D12046F8BD10B50446C046C04620467E
:101E0000FEF7A9F910BD000000487047340000201B
:101E1000301E00080000002034000000040100080B
:101E2000641E000834000020640600002001000841
:101E300000000000006CDC02000000000000000058
:101E4000010203040607080900000000000000006A
:101E5000000000000000000001020304010203046E
:041E60000607080960
:040000050800056585
:00000001FF
